{
  "contractName": "StarNotary",
  "abi": [
    {
      "constant": true,
      "inputs": [
        {
          "name": "",
          "type": "uint256"
        }
      ],
      "name": "starsForSale",
      "outputs": [
        {
          "name": "",
          "type": "uint256"
        }
      ],
      "payable": false,
      "stateMutability": "view",
      "type": "function"
    },
    {
      "constant": true,
      "inputs": [
        {
          "name": "_tokenId",
          "type": "uint256"
        }
      ],
      "name": "getApproved",
      "outputs": [
        {
          "name": "",
          "type": "address"
        }
      ],
      "payable": false,
      "stateMutability": "view",
      "type": "function"
    },
    {
      "constant": false,
      "inputs": [
        {
          "name": "_approved",
          "type": "address"
        },
        {
          "name": "_tokenId",
          "type": "uint256"
        }
      ],
      "name": "approve",
      "outputs": [],
      "payable": true,
      "stateMutability": "payable",
      "type": "function"
    },
    {
      "constant": false,
      "inputs": [
        {
          "name": "_from",
          "type": "address"
        },
        {
          "name": "_to",
          "type": "address"
        },
        {
          "name": "_tokenId",
          "type": "uint256"
        }
      ],
      "name": "transferFrom",
      "outputs": [],
      "payable": true,
      "stateMutability": "payable",
      "type": "function"
    },
    {
      "constant": false,
      "inputs": [
        {
          "name": "_from",
          "type": "address"
        },
        {
          "name": "_to",
          "type": "address"
        },
        {
          "name": "_tokenId",
          "type": "uint256"
        }
      ],
      "name": "safeTransferFrom",
      "outputs": [],
      "payable": true,
      "stateMutability": "payable",
      "type": "function"
    },
    {
      "constant": true,
      "inputs": [
        {
          "name": "_tokenId",
          "type": "uint256"
        }
      ],
      "name": "ownerOf",
      "outputs": [
        {
          "name": "",
          "type": "address"
        }
      ],
      "payable": false,
      "stateMutability": "view",
      "type": "function"
    },
    {
      "constant": true,
      "inputs": [
        {
          "name": "_owner",
          "type": "address"
        }
      ],
      "name": "balanceOf",
      "outputs": [
        {
          "name": "",
          "type": "uint256"
        }
      ],
      "payable": false,
      "stateMutability": "view",
      "type": "function"
    },
    {
      "constant": false,
      "inputs": [
        {
          "name": "_tokenId",
          "type": "uint256"
        }
      ],
      "name": "mint",
      "outputs": [],
      "payable": false,
      "stateMutability": "nonpayable",
      "type": "function"
    },
    {
      "constant": false,
      "inputs": [
        {
          "name": "_operator",
          "type": "address"
        },
        {
          "name": "_approved",
          "type": "bool"
        }
      ],
      "name": "setApprovalForAll",
      "outputs": [],
      "payable": false,
      "stateMutability": "nonpayable",
      "type": "function"
    },
    {
      "constant": false,
      "inputs": [
        {
          "name": "_from",
          "type": "address"
        },
        {
          "name": "_to",
          "type": "address"
        },
        {
          "name": "_tokenId",
          "type": "uint256"
        },
        {
          "name": "data",
          "type": "bytes"
        }
      ],
      "name": "safeTransferFrom",
      "outputs": [],
      "payable": true,
      "stateMutability": "payable",
      "type": "function"
    },
    {
      "constant": true,
      "inputs": [
        {
          "name": "_owner",
          "type": "address"
        },
        {
          "name": "_operator",
          "type": "address"
        }
      ],
      "name": "isApprovedForAll",
      "outputs": [
        {
          "name": "",
          "type": "bool"
        }
      ],
      "payable": false,
      "stateMutability": "view",
      "type": "function"
    },
    {
      "constant": true,
      "inputs": [
        {
          "name": "",
          "type": "uint256"
        }
      ],
      "name": "starCoordinatorHash",
      "outputs": [
        {
          "name": "",
          "type": "string"
        }
      ],
      "payable": false,
      "stateMutability": "view",
      "type": "function"
    },
    {
      "anonymous": false,
      "inputs": [
        {
          "indexed": true,
          "name": "_from",
          "type": "address"
        },
        {
          "indexed": true,
          "name": "_to",
          "type": "address"
        },
        {
          "indexed": true,
          "name": "_tokenId",
          "type": "uint256"
        }
      ],
      "name": "Transfer",
      "type": "event"
    },
    {
      "anonymous": false,
      "inputs": [
        {
          "indexed": true,
          "name": "_owner",
          "type": "address"
        },
        {
          "indexed": true,
          "name": "_approved",
          "type": "address"
        },
        {
          "indexed": true,
          "name": "_tokenId",
          "type": "uint256"
        }
      ],
      "name": "Approval",
      "type": "event"
    },
    {
      "anonymous": false,
      "inputs": [
        {
          "indexed": true,
          "name": "_owner",
          "type": "address"
        },
        {
          "indexed": true,
          "name": "_operator",
          "type": "address"
        },
        {
          "indexed": false,
          "name": "_approved",
          "type": "bool"
        }
      ],
      "name": "ApprovalForAll",
      "type": "event"
    },
    {
      "constant": false,
      "inputs": [
        {
          "name": "_name",
          "type": "string"
        },
        {
          "name": "_story",
          "type": "string"
        },
        {
          "name": "_dec",
          "type": "string"
        },
        {
          "name": "_mag",
          "type": "string"
        },
        {
          "name": "_cent",
          "type": "string"
        },
        {
          "name": "_tokenId",
          "type": "uint256"
        }
      ],
      "name": "createStar",
      "outputs": [],
      "payable": false,
      "stateMutability": "nonpayable",
      "type": "function"
    },
    {
      "constant": false,
      "inputs": [
        {
          "name": "_tokenId",
          "type": "uint256"
        },
        {
          "name": "_price",
          "type": "uint256"
        }
      ],
      "name": "putStarUpForSale",
      "outputs": [],
      "payable": false,
      "stateMutability": "nonpayable",
      "type": "function"
    },
    {
      "constant": false,
      "inputs": [
        {
          "name": "_tokenId",
          "type": "uint256"
        }
      ],
      "name": "buyStar",
      "outputs": [],
      "payable": true,
      "stateMutability": "payable",
      "type": "function"
    },
    {
      "constant": true,
      "inputs": [
        {
          "name": "_tokenId",
          "type": "uint256"
        }
      ],
      "name": "tokenIdToStarInfo",
      "outputs": [
        {
          "name": "",
          "type": "string"
        },
        {
          "name": "",
          "type": "string"
        },
        {
          "name": "",
          "type": "string"
        },
        {
          "name": "",
          "type": "string"
        },
        {
          "name": "",
          "type": "string"
        }
      ],
      "payable": false,
      "stateMutability": "view",
      "type": "function"
    }
  ],
  "bytecode": "0x608060405234801561001057600080fd5b50612099806100206000396000f3006080604052600436106100e6576000357c0100000000000000000000000000000000000000000000000000000000900463ffffffff1680630564b130146100eb578063081812fc1461012c578063095ea7b3146101995780631967fd98146101d957806323b872dd1461042f5780632f1c34ef1461048f578063316a4361146104af57806342842e0e146104e65780636352211e1461054657806370a08231146105b3578063a0712d681461060a578063a22cb46514610637578063b250ced014610686578063b88d4fde14610811578063e985e9c514610889578063f2c3d90c14610904575b600080fd5b3480156100f757600080fd5b50610116600480360381019080803590602001909291905050506109aa565b6040518082815260200191505060405180910390f35b34801561013857600080fd5b50610157600480360381019080803590602001909291905050506109c2565b604051808273ffffffffffffffffffffffffffffffffffffffff1673ffffffffffffffffffffffffffffffffffffffff16815260200191505060405180910390f35b6101d7600480360381019080803573ffffffffffffffffffffffffffffffffffffffff169060200190929190803590602001909291905050506109ff565b005b3480156101e557600080fd5b5061020460048036038101908080359060200190929190505050610b1c565b60405180806020018060200180602001806020018060200186810386528b818151815260200191508051906020019080838360005b83811015610254578082015181840152602081019050610239565b50505050905090810190601f1680156102815780820380516001836020036101000a031916815260200191505b5086810385528a818151815260200191508051906020019080838360005b838110156102ba57808201518184015260208101905061029f565b50505050905090810190601f1680156102e75780820380516001836020036101000a031916815260200191505b50868103845289818151815260200191508051906020019080838360005b83811015610320578082015181840152602081019050610305565b50505050905090810190601f16801561034d5780820380516001836020036101000a031916815260200191505b50868103835288818151815260200191508051906020019080838360005b8381101561038657808201518184015260208101905061036b565b50505050905090810190601f1680156103b35780820380516001836020036101000a031916815260200191505b50868103825287818151815260200191508051906020019080838360005b838110156103ec5780820151818401526020810190506103d1565b50505050905090810190601f1680156104195780820380516001836020036101000a031916815260200191505b509a505050505050505050505060405180910390f35b61048d600480360381019080803573ffffffffffffffffffffffffffffffffffffffff169060200190929190803573ffffffffffffffffffffffffffffffffffffffff16906020019092919080359060200190929190505050610eb3565b005b6104ad60048036038101908080359060200190929190505050610fb4565b005b3480156104bb57600080fd5b506104e4600480360381019080803590602001909291908035906020019092919050505061115c565b005b610544600480360381019080803573ffffffffffffffffffffffffffffffffffffffff169060200190929190803573ffffffffffffffffffffffffffffffffffffffff1690602001909291908035906020019092919050505061125b565b005b34801561055257600080fd5b5061057160048036038101908080359060200190929190505050611260565b604051808273ffffffffffffffffffffffffffffffffffffffff1673ffffffffffffffffffffffffffffffffffffffff16815260200191505060405180910390f35b3480156105bf57600080fd5b506105f4600480360381019080803573ffffffffffffffffffffffffffffffffffffffff16906020019092919050505061129c565b6040518082815260200191505060405180910390f35b34801561061657600080fd5b50610635600480360381019080803590602001909291905050506113af565b005b34801561064357600080fd5b50610684600480360381019080803573ffffffffffffffffffffffffffffffffffffffff1690602001909291908035151590602001909291905050506115a8565b005b34801561069257600080fd5b5061080f600480360381019080803590602001908201803590602001908080601f0160208091040260200160405190810160405280939291908181526020018383808284378201915050505050509192919290803590602001908201803590602001908080601f0160208091040260200160405190810160405280939291908181526020018383808284378201915050505050509192919290803590602001908201803590602001908080601f0160208091040260200160405190810160405280939291908181526020018383808284378201915050505050509192919290803590602001908201803590602001908080601f0160208091040260200160405190810160405280939291908181526020018383808284378201915050505050509192919290803590602001908201803590602001908080601f0160208091040260200160405190810160405280939291908181526020018383808284378201915050505050509192919290803590602001909291905050506116a9565b005b610887600480360381019080803573ffffffffffffffffffffffffffffffffffffffff169060200190929190803573ffffffffffffffffffffffffffffffffffffffff16906020019092919080359060200190929190803590602001908201803590602001919091929391929390505050611890565b005b34801561089557600080fd5b506108ea600480360381019080803573ffffffffffffffffffffffffffffffffffffffff169060200190929190803573ffffffffffffffffffffffffffffffffffffffff169060200190929190505050611897565b604051808215151515815260200191505060405180910390f35b34801561091057600080fd5b5061092f6004803603810190808035906020019092919050505061192b565b6040518080602001828103825283818151815260200191508051906020019080838360005b8381101561096f578082015181840152602081019050610954565b50505050905090810190601f16801561099c5780820380516001836020036101000a031916815260200191505b509250505060405180910390f35b60066020528060005260406000206000915090505481565b60006002600083815260200190815260200160002060009054906101000a900473ffffffffffffffffffffffffffffffffffffffff169050919050565b3373ffffffffffffffffffffffffffffffffffffffff1660008083815260200190815260200160002060009054906101000a900473ffffffffffffffffffffffffffffffffffffffff1673ffffffffffffffffffffffffffffffffffffffff16141515610a6b57600080fd5b816002600083815260200190815260200160002060006101000a81548173ffffffffffffffffffffffffffffffffffffffff021916908373ffffffffffffffffffffffffffffffffffffffff160217905550808273ffffffffffffffffffffffffffffffffffffffff163373ffffffffffffffffffffffffffffffffffffffff167f8c5be1e5ebec7d5bd14f71427d1e84f3dd0314c0f7b2291e5b200ac8c7c3b92560405160405180910390a45050565b6060806060806060610b2c611f18565b6004600088815260200190815260200160002060a06040519081016040529081600082018054600181600116156101000203166002900480601f016020809104026020016040519081016040528092919081815260200182805460018160011615610100020316600290048015610be45780601f10610bb957610100808354040283529160200191610be4565b820191906000526020600020905b815481529060010190602001808311610bc757829003601f168201915b50505050508152602001600182018054600181600116156101000203166002900480601f016020809104026020016040519081016040528092919081815260200182805460018160011615610100020316600290048015610c865780601f10610c5b57610100808354040283529160200191610c86565b820191906000526020600020905b815481529060010190602001808311610c6957829003601f168201915b50505050508152602001600282018054600181600116156101000203166002900480601f016020809104026020016040519081016040528092919081815260200182805460018160011615610100020316600290048015610d285780601f10610cfd57610100808354040283529160200191610d28565b820191906000526020600020905b815481529060010190602001808311610d0b57829003601f168201915b50505050508152602001600382018054600181600116156101000203166002900480601f016020809104026020016040519081016040528092919081815260200182805460018160011615610100020316600290048015610dca5780601f10610d9f57610100808354040283529160200191610dca565b820191906000526020600020905b815481529060010190602001808311610dad57829003601f168201915b50505050508152602001600482018054600181600116156101000203166002900480601f016020809104026020016040519081016040528092919081815260200182805460018160011615610100020316600290048015610e6c5780601f10610e4157610100808354040283529160200191610e6c565b820191906000526020600020905b815481529060010190602001808311610e4f57829003601f168201915b505050505081525050905080600001518160800151826060015183602001518460400151849450839350829250819150809050955095509550955095505091939590929450565b338160008082815260200190815260200160002060009054906101000a900473ffffffffffffffffffffffffffffffffffffffff1673ffffffffffffffffffffffffffffffffffffffff168273ffffffffffffffffffffffffffffffffffffffff161480610f5457508173ffffffffffffffffffffffffffffffffffffffff16610f3c826109c2565b73ffffffffffffffffffffffffffffffffffffffff16145b80610f975750610f9660008083815260200190815260200160002060009054906101000a900473ffffffffffffffffffffffffffffffffffffffff1683611897565b5b1515610fa257600080fd5b610fad8585856119e6565b5050505050565b60008060006006600085815260200190815260200160002054111515610fd957600080fd5b600660008481526020019081526020016000205491503073ffffffffffffffffffffffffffffffffffffffff16636352211e846040518263ffffffff167c010000000000000000000000000000000000000000000000000000000002815260040180828152602001915050602060405180830381600087803b15801561105e57600080fd5b505af1158015611072573d6000803e3d6000fd5b505050506040513d602081101561108857600080fd5b810190808051906020019092919050505090508134101515156110aa57600080fd5b6110b383611ae4565b6110be8133856119e6565b81341115611110573373ffffffffffffffffffffffffffffffffffffffff166108fc8334039081150290604051600060405180830381858888f1935050505015801561110e573d6000803e3d6000fd5b505b8073ffffffffffffffffffffffffffffffffffffffff166108fc839081150290604051600060405180830381858888f19350505050158015611156573d6000803e3d6000fd5b50505050565b3373ffffffffffffffffffffffffffffffffffffffff163073ffffffffffffffffffffffffffffffffffffffff16636352211e846040518263ffffffff167c010000000000000000000000000000000000000000000000000000000002815260040180828152602001915050602060405180830381600087803b1580156111e257600080fd5b505af11580156111f6573d6000803e3d6000fd5b505050506040513d602081101561120c57600080fd5b810190808051906020019092919050505073ffffffffffffffffffffffffffffffffffffffff1614151561123f57600080fd5b8060066000848152602001908152602001600020819055505050565b505050565b600080600083815260200190815260200160002060009054906101000a900473ffffffffffffffffffffffffffffffffffffffff169050919050565b60008073ffffffffffffffffffffffffffffffffffffffff168273ffffffffffffffffffffffffffffffffffffffff1614151515611368576040517f08c379a00000000000000000000000000000000000000000000000000000000081526004018080602001828103825260228152602001807f63616e6e6f742061736b206f662062616c616e6365206f66206164647265737381526020017f203000000000000000000000000000000000000000000000000000000000000081525060400191505060405180910390fd5b600160008373ffffffffffffffffffffffffffffffffffffffff1673ffffffffffffffffffffffffffffffffffffffff168152602001908152602001600020549050919050565b600073ffffffffffffffffffffffffffffffffffffffff1660008083815260200190815260200160002060009054906101000a900473ffffffffffffffffffffffffffffffffffffffff1673ffffffffffffffffffffffffffffffffffffffff161415156114ab576040517f08c379a000000000000000000000000000000000000000000000000000000000815260040180806020018281038252602a8152602001807f7468697320746f6b656e2062656c6f6e677320746f20736f6d656f6e6520656c81526020017f736520616c72656164790000000000000000000000000000000000000000000081525060400191505060405180910390fd5b3360008083815260200190815260200160002060006101000a81548173ffffffffffffffffffffffffffffffffffffffff021916908373ffffffffffffffffffffffffffffffffffffffff16021790555060018060003373ffffffffffffffffffffffffffffffffffffffff1673ffffffffffffffffffffffffffffffffffffffff16815260200190815260200160002060008282540192505081905550803373ffffffffffffffffffffffffffffffffffffffff16600073ffffffffffffffffffffffffffffffffffffffff167fddf252ad1be2c89b69c2b068fc378daa952ba7f163c4a11628f55a4df523b3ef60405160405180910390a450565b80600360003373ffffffffffffffffffffffffffffffffffffffff1673ffffffffffffffffffffffffffffffffffffffff16815260200190815260200160002060008473ffffffffffffffffffffffffffffffffffffffff1673ffffffffffffffffffffffffffffffffffffffff16815260200190815260200160002060006101000a81548160ff0219169083151502179055508173ffffffffffffffffffffffffffffffffffffffff163373ffffffffffffffffffffffffffffffffffffffff167f17307eab39ab6107e8899845ad3d59bd9653f200f220920489ca2b5937696c3183604051808215151515815260200191505060405180910390a35050565b600060606116b5611f18565b6116c0878787611b53565b92508215151561175e576040517f08c379a000000000000000000000000000000000000000000000000000000000815260040180806020018281038252602d8152602001807f7468697320636f6f7264696e6174696f6e2068617320616c726561647920626581526020017f656e20726567697374657265640000000000000000000000000000000000000081525060400191505060405180910390fd5b611769878787611d27565b915060058290806001815401808255809150509060018203906000526020600020016000909192909190915090805190602001906117a8929190611f48565b505060a0604051908101604052808a815260200188815260200187815260200186815260200189815250905080600460008681526020019081526020016000206000820151816000019080519060200190611804929190611fc8565b506020820151816001019080519060200190611821929190611fc8565b50604082015181600201908051906020019061183e929190611fc8565b50606082015181600301908051906020019061185b929190611fc8565b506080820151816004019080519060200190611878929190611fc8565b50905050611885846113af565b505050505050505050565b5050505050565b6000600360008473ffffffffffffffffffffffffffffffffffffffff1673ffffffffffffffffffffffffffffffffffffffff16815260200190815260200160002060008373ffffffffffffffffffffffffffffffffffffffff1673ffffffffffffffffffffffffffffffffffffffff16815260200190815260200160002060009054906101000a900460ff16905092915050565b60058181548110151561193a57fe5b906000526020600020016000915090508054600181600116156101000203166002900480601f0160208091040260200160405190810160405280929190818152602001828054600181600116156101000203166002900480156119de5780601f106119b3576101008083540402835291602001916119de565b820191906000526020600020905b8154815290600101906020018083116119c157829003601f168201915b505050505081565b8160008083815260200190815260200160002060006101000a81548173ffffffffffffffffffffffffffffffffffffffff021916908373ffffffffffffffffffffffffffffffffffffffff16021790555060018060008573ffffffffffffffffffffffffffffffffffffffff1673ffffffffffffffffffffffffffffffffffffffff16815260200190815260200160002060008282540392505081905550808273ffffffffffffffffffffffffffffffffffffffff168473ffffffffffffffffffffffffffffffffffffffff167fddf252ad1be2c89b69c2b068fc378daa952ba7f163c4a11628f55a4df523b3ef60405160405180910390a4505050565b60006002600083815260200190815260200160002060006101000a81548173ffffffffffffffffffffffffffffffffffffffff021916908373ffffffffffffffffffffffffffffffffffffffff1602179055506000600660008381526020019081526020016000208190555050565b6000606060006060611b66878787611d27565b9250600091505b600580549050821015611d1857600582815481101515611b8957fe5b906000526020600020018054600181600116156101000203166002900480601f016020809104026020016040519081016040528092919081815260200182805460018160011615610100020316600290048015611c275780601f10611bfc57610100808354040283529160200191611c27565b820191906000526020600020905b815481529060010190602001808311611c0a57829003601f168201915b50505050509050826040518082805190602001908083835b602083101515611c645780518252602082019150602081019050602083039250611c3f565b6001836020036101000a038019825116818451168082178552505050505050905001915050604051809103902060001916816040518082805190602001908083835b602083101515611ccb5780518252602082019150602081019050602083039250611ca6565b6001836020036101000a0380198251168184511680821785525050505050509050019150506040518091039020600019161415611d0b5760019350611d1d565b8180600101925050611b6d565b600093505b5050509392505050565b606080611d348585611d4d565b9050611d408184611d4d565b9050809150509392505050565b60608060608060008087945086935083518551016040519080825280601f01601f191660200182016040528015611d935781602001602082028038833980820191505090505b50925060009150600090505b8451811015611e52578481815181101515611db657fe5b9060200101517f010000000000000000000000000000000000000000000000000000000000000090047f0100000000000000000000000000000000000000000000000000000000000000028383806001019450815181101515611e1557fe5b9060200101907effffffffffffffffffffffffffffffffffffffffffffffffffffffffffffff1916908160001a9053508080600101915050611d9f565b600090505b8351811015611f0a578381815181101515611e6e57fe5b9060200101517f010000000000000000000000000000000000000000000000000000000000000090047f0100000000000000000000000000000000000000000000000000000000000000028383806001019450815181101515611ecd57fe5b9060200101907effffffffffffffffffffffffffffffffffffffffffffffffffffffffffffff1916908160001a9053508080600101915050611e57565b829550505050505092915050565b60a06040519081016040528060608152602001606081526020016060815260200160608152602001606081525090565b828054600181600116156101000203166002900490600052602060002090601f016020900481019282601f10611f8957805160ff1916838001178555611fb7565b82800160010185558215611fb7579182015b82811115611fb6578251825591602001919060010190611f9b565b5b509050611fc49190612048565b5090565b828054600181600116156101000203166002900490600052602060002090601f016020900481019282601f1061200957805160ff1916838001178555612037565b82800160010185558215612037579182015b8281111561203657825182559160200191906001019061201b565b5b5090506120449190612048565b5090565b61206a91905b8082111561206657600081600090555060010161204e565b5090565b905600a165627a7a72305820ecd671212994f90a2ae8f7607e0a07ce2e80c4f6dba23fd1155b26032a7be7760029",
  "source": "pragma solidity ^0.4.23;\nimport './ERC721Token.sol';\n\ncontract StarNotary is ERC721Token { \n\n    struct Star { \n        string name; \n        string Dec;\n        string Mag;\n        string Cent;\n        string story;\n    }\n    \n    mapping(uint256 => Star) public tokenIdToStarInfo;\n    string[] public starCoordinatorHash; \n    mapping(uint256 => uint256) public starsForSale;\n\n    function createStar(string _name, string _story, string _dec, string _mag, string _cent, uint256 _tokenId) public { \n        bool checkCoord = checkIfStarExist(_dec, _mag, _cent);\n        require(!checkCoord, \"this coordination has already been registered\");\n        string memory starHash = _getStarHash(_dec, _mag, _cent);\n        starCoordinatorHash.push(starHash);\n        Star memory newStar = Star(_name, _dec, _mag, _cent, _story);\n        tokenIdToStarInfo[_tokenId] = newStar;\n\n        ERC721Token.mint(_tokenId);\n    }\n\n    function checkIfStarExist(string _dec, string _mag, string _cent) internal view returns (bool) {\n        \n        string memory starHash = _getStarHash(_dec, _mag, _cent);\n        for (uint i = 0; i < starCoordinatorHash.length; i++) {\n            string memory _hash = starCoordinatorHash[i];\n            if (keccak256(_hash) == keccak256(starHash)) {\n                return true;\n            }\n        }\n        return false;\n    }\n\n    function _getStarHash(string _dec, string _mag, string _cent) internal pure returns (string) {\n        string memory starHash = _strConcat(_dec, _mag);\n        starHash = _strConcat(starHash, _cent);\n        return starHash;\n    } \n    \n    function putStarUpForSale(uint256 _tokenId, uint256 _price) public { \n        require(this.ownerOf(_tokenId) == msg.sender);\n\n        starsForSale[_tokenId] = _price;\n    }\n\n    function buyStar(uint256 _tokenId) public payable { \n        require(starsForSale[_tokenId] > 0);\n\n        uint256 starCost = starsForSale[_tokenId];\n        address starOwner = this.ownerOf(_tokenId);\n\n        require(msg.value >= starCost);\n\n        clearPreviousStarState(_tokenId);\n\n        transferFromHelper(starOwner, msg.sender, _tokenId);\n\n        if(msg.value > starCost) { \n            msg.sender.transfer(msg.value - starCost);\n        }\n\n        starOwner.transfer(starCost);\n    }\n\n    function clearPreviousStarState(uint256 _tokenId) private {\n        //clear approvals \n        tokenToApproved[_tokenId] = address(0);\n\n        //clear being on sale \n        starsForSale[_tokenId] = 0;\n    }\n    \n    function tokenIdToStarInfo(uint256 _tokenId) public constant returns (string,string,string,string,string) {\n        Star memory star = tokenIdToStarInfo[_tokenId];\n        return (star.name,star.story,star.Cent,star.Dec,star.Mag);\n    }\n    \n    \n    function _strConcat(string _str1, string _str2) internal pure returns (string){\n        bytes memory _byte1 = bytes(_str1);\n        bytes memory _byte2 = bytes(_str2);\n\n        bytes memory _bytes = new bytes(_byte1.length + _byte2.length);\n        uint j = 0;\n        for (uint i = 0; i < _byte1.length; i++) {\n            _bytes[j++] = _byte1[i];\n        }\n        for (i = 0; i < _byte2.length; i++) {\n            _bytes[j++] = _byte2[i];\n        } \n        return string(_bytes);\n    }\n}",
  "sourcePath": "D:\\Works\\udacity\\blockchain\\proj5\\smart_contracts\\contracts\\StarNotary.sol",
  "compiler": {
    "name": "solc",
    "version": "0.4.24+commit.e67f0147.Emscripten.clang"
  },
  "schemaVersion": "2.0.1",
  "updatedAt": "2018-11-03T01:51:59.831Z"
}